:020000040800F2
:10000000005000200D340008BD1A0008BF1A000877
:1000100000000000000000000000000000000000E0
:10002000000000000000000000000000C11A0008ED
:100030000000000000000000C31A0008C51A0008F4
:100040005D3400085D340008CD1A00085D340008F6
:100050005D340008DD1A00085D340008ED1A000860
:10006000000000005D3400085D3400085D340008C5
:100070005D3400085D3400085D3400085D3400081C
:100080005D3400085D3400085D34000800000000A5
:100090005D3400085D3400085D3400085D340008FC
:1000A0005D3400085D3400085D3400085D340008EC
:1000B0005D3400085D34000800000000000000000E
:1000C00010B5064C2378002B07D1054B002B02D02E
:1000D000044800E000BF0123237010BDB4000020DD
:1000E00000000000B8340008044B10B5002B03D00A
:1000F0000349044800E000BF10BDC04600000000F6
:10010000B8000020B8340008002243088B4274D3A2
:1001100003098B425FD3030A8B4244D3030B8B4208
:1001200028D3030C8B420DD3FF22090212BA030C11
:100130008B4202D31212090265D0030B8B4219D3F2
:1001400000E0090AC30B8B4201D3CB03C01A524112
:10015000830B8B4201D38B03C01A5241430B8B425A
:1001600001D34B03C01A5241030B8B4201D30B0343
:10017000C01A5241C30A8B4201D3CB02C01A52416A
:10018000830A8B4201D38B02C01A5241430A8B422D
:1001900001D34B02C01A5241030A8B4201D30B0216
:1001A000C01A5241CDD2C3098B4201D3CB01C01A30
:1001B000524183098B4201D38B01C01A524143093A
:1001C0008B4201D34B01C01A524103098B4201D328
:1001D0000B01C01A5241C3088B4201D3CB00C01A95
:1001E000524183088B4201D38B00C01A524143080D
:1001F0008B4201D34B00C01A5241411A00D2014632
:10020000524110467047FFE701B5002000F006F8A4
:1002100002BDC0460029F7D076E770477047C04658
:1002200070B500220C4B04000D0001F06FF900289E
:1002300004D12000290001F0CDF870BD064B00224A
:100240002000290000F07EFD01F0C4F880231B0689
:100250009C466044F1E7C0460000E041F0B55746D7
:10026000DE464E464546E0B5834607000E0348008D
:1002700085B092461C00360B400DCD0F002800D1F2
:100280009DE0954B984239D08023F6001B041E4315
:10029000924A7B0F3343994694460300634400938C
:1002A00000230026FF00029323031B0B98466300E4
:1002B000E40F52465B0D019400D1B3E086498B42B6
:1002C00000D19EE04246D100802212040A435146EA
:1002D000490F11438B46814952468C46009963442D
:1002E000CB1A0021D20000932B0063409A460F2EB8
:1002F00000D905E17A4BB6009B599F465B463343D4
:10030000994600D0B8E00223082600270090029307
:10031000CAE7CB463A0002990195019B9A46022909
:1003200027D0032900D180E2012944D06D49009BE8
:100330008C4663441C00002C38DD530700D013E2C8
:10034000D2085B46DB0109D55946674B19408B46FD
:100350008021C9008C46009B63441C00634B9C4277
:1003600007DC5B4664055F075B0217431B0B620DEE
:1003700002E000230027584A00211B031C0B0B0D31
:100380001B05234314055A4A380013401C435346A7
:100390006400DB0764081C43210005B03CBC9046A8
:1003A0009946A246AB46F0BD0122524201231B1BD7
:1003B000382B00DCADE1002200230027DCE75B46A0
:1003C000334399465ED0002E00D18AE1300001F01F
:1003D000A7F803000B3B1C2B00DD7BE11D22D31A89
:1003E0005A460100DA4008398E4013005F46334315
:1003F00099468F403F4B00261B1A0093002302931F
:1004000052E7414653460B433B499B468C46009B73
:10041000634400935B46002B3BD1022300221E4322
:10042000022161E7434613439B4637D04346002BE6
:1004300000D162E1404601F073F803000B3B1C2B36
:1004400000DD53E102004146083A914088461D21F3
:10045000CB1A5146D9400B0041460B439B465346AD
:1004600093401A00009B25499C46604403008C463B
:1004700063440093002137E70323B14600900C2624
:10048000029311E70023009301330426002702930F
:100490000AE70323C3461E43032125E701331E4316
:1004A0000022012120E700239A46802300271B0316
:1004B000094A61E7802349461B03194200D1E2E063
:1004C0005946194200D0DEE00B431B0317001B0BFB
:1004D000A246014A50E7C046FF07000001FCFFFFAB
:1004E00034350008FF030000FFFFFFFEFE07000099
:1004F000FFFF0F800DFCFFFF01F8FFFFF30300007B
:10050000D94500D9CBE000D1C6E03C0048460027E1
:10051000009B013B00935B46160E1B021E43130219
:10052000984633041B0C9946310C0191FFF772FE7B
:100530004A4642430B04210C050019438A4207D95D
:100540008919013D8E4203D88A4201D9851E891935
:10055000881A0199FFF75EFE09048C464A46210479
:1005600064464243090C030021438A4204D9891995
:10057000013B8E4200D8F1E02D041D43AB464346BB
:10058000891A4246280C12041D0C5B46140C2200EA
:100590001B041B0C5A4303946B434443029568436A
:1005A0001B19150CEB189C4203D980246402A44645
:1005B00060441C0C15041B042D0C20185D1981428D
:1005C00077D373D00C1AA24A7D1BAF42BF41944629
:1005D000009B7F426344E01B1C00864200D1DBE0AD
:1005E0000199FFF717FE4A4642430B04290C070006
:1005F00019438A4207D98919013F8E4203D88A429A
:1006000001D9871E8919881A0199FFF703FE090489
:100610004A46894629044D464243090C03002943B2
:100620008A4207D98919013B8E4203D88A4201D9EF
:10063000831E89193F04891A3A00039F1A43380020
:1006400013041B0C584381460298150C6F43434317
:1006500045434846000C8446DB1963449F4203D956
:10066000802040028446654448461F0C00041B0459
:10067000000C7D191818A94200D284E000D17FE057
:1006800001231A4357E680234A461B0313431B03E7
:100690001B0BAA466F4A6FE6BA4200D935E74B46B4
:1006A000DC0758087B081C43FF0734E70024AF42EF
:1006B00089D247444745A4415B466442A419641863
:1006C000013BA6421ED2A0426DD800D1B6E0241A4A
:1006D0009B4678E703005A46283B9A4000279146FC
:1006E00088E6584600F01CFF203072E603005246B0
:1006F000283B9A4093460022B4E6504600F010FF93
:1007000020309AE6A642E2D1B845DCD9341A9B469D
:1007100059E71F2B65DC504C0099A4465C466144A8
:1007200008008C4011008240D940501E82410C4389
:1007300014435A46DA401300620709D00F222240C0
:10074000042A05D02200141D9442894149425B18B5
:100750001A0262D50122002300270DE68A4200D842
:100760000AE7831E891907E70F231340042B00D1E2
:10077000E6E5171D9742924153429B44FA08E0E593
:10078000002800D1D7E57118531EB14227D3A942E2
:1007900015D358D01A0073E7002B00DC04E60123C0
:1007A00000229B44CDE502234744474589415B42F3
:1007B0009C46494289190C19E344241A03E743462D
:1007C0005F0047459B41B8465B429E19023A891932
:1007D000A94200D054E7404500D051E7ABE51A00EC
:1007E000F6E71F215F4649420C1BE740202B07D04C
:1007F0001A49009B8C46634418005B4683401A43A9
:10080000501E82413A4307270023174009D00F2189
:10081000002311401400042995D122005F075B02D8
:100820001B0BD20817430022A6E5802359461B0361
:100830000B431B0317001B0B064A9DE5BD42B2D8B4
:100840009B460024BFE68045B9D31A00C3E7C046E3
:10085000FF030000FF0700001E0400003E0400002C
:10086000F0B55746DE464E464546E0B5834606009F
:100870000F03480087B092461D003F0B400DCC0F80
:10088000002800D16FE0DE4B984238D08023FF0073
:100890001B041F43730F3B430193DA4B0027994618
:1008A00000239B46F60081442B0369001B0B524634
:1008B0009846490DED0F002900D185E0D04B9942B3
:1008C00000D173E04346DA0080231B0413435246F1
:1008D000CC48520F84461343524600206144D20054
:1008E00089442100694000918C46012149448A468F
:1008F0000F2F00D990E0C449BF00CF59BF465B46D7
:100900003B43019300D06AE1022308270026814679
:100910009B46C9E732005846019B61460091022878
:1009200000D175E0032800D1FEE1012800D02CE1C0
:1009300000230027002600253F032A0D3F0BB34864
:1009400012053A4302401B051343009A5B00D1078E
:100950005B080B433000190007B03CBC9046994639
:10096000A246AB46F0BD5B463B43019300D12FE16D
:10097000002F00D1A5E1380000F0D2FD03000B3BB1
:100980001C2B00DD96E11D22D31A5A460100DA40E5
:100990005E4608398F4013008E403B4301939C4BC9
:1009A00000271B1A994600239B467DE74146534684
:1009B0000B4393498C46E144002B00D01AE10222FC
:1009C0000220174300228CE7134300D10DE1434678
:1009D000002B00D181E1404600F0A2FD02000B3A5D
:1009E0001C2A00DD72E10100434608398B4098461D
:1009F0001D239A1A5346D3401A00434613435246C6
:100A00008A404946081A824989468144002068E79D
:100A10007B4B002700268EE7140C1204120C1100E9
:100A2000370C3604350C794328008C462E00604381
:100A30006044834656432100300C80465846794333
:100A400040440291844506D98846802149028C465B
:100A5000E044414602913604010C360C00048B46FA
:100A600081191E0C1B041B0C0391190079438C4641
:100A7000280075436544A8465843050C4544774310
:100A8000A94203D9802149028C466744290C8C462F
:100A900039000004000C2D042D186144AB4405916D
:100AA0005946049101990F043F0C080C3900514339
:100AB0004243904602008C46090C8B4662437C43BD
:100AC00044445C44A04503D98021490288464244FD
:100AD000210C884661460904090C8C4639005943AB
:100AE000434370437E430F0CF6182404BE1964443C
:100AF00042448C46B34203D980235B02984640446B
:100B0000029B61469846049B370443449B46AB4591
:100B1000AD416B420D0405992D0C8C467F1967443D
:100B2000FD18A8465D462D19A542A441934664428E
:100B3000A446C344DC448F42BF4198459B41934542
:100B40009241A445A4415B427F421F43360C52426E
:100B50006442BF192243BF18624638184302D20DBF
:100B6000039913436A020A43501E82416146ED0D08
:100B70002A434E023243D90100D4B3E00126500883
:100B800032400243DE0732435B08224C5444002CBF
:100B900062DD510709D00F201040042805D0101D38
:100BA0009042924152429B180200D90104D5802400
:100BB0001948E400034054441848844200DD27E704
:100BC0005E075B02D2081F0B630516435B0DB2E69E
:100BD000002399460133042700269B4664E603233D
:100BE000019781460C279B465EE6012201201743B0
:100BF000002276E6032303201F43434671E6C046E6
:100C0000FF07000001FCFFFF74350008FFFF0F80A5
:100C10000DFCFFFFFF030000FFFFFFFEFE070000CB
:100C20000023802700933F030026434B83E6019B6C
:100C30003200A446584670E6AC466EE6802701991D
:100C40003F0339422DD03B422BD11F433F033F0B83
:100C500000951600384B6EE601252D1B382D00DD62
:100C600066E61F2D40DC35481C00504416008240CB
:100C70008440EE40501E824134431443EB406207EF
:100C800009D00F222240042A05D02200141D9442CC
:100C9000804140421B181A023ED50123002700263E
:100CA00049E68027019B3F031F433F033F0B00940E
:100CB000214B40E603005A46283B9A400026019209
:100CC0006DE6584600F02CFC203057E603005246F3
:100CD000283B9A401300002293E6504600F020FC87
:100CE00020307BE6CA4650E71F201E004042041B0E
:100CF000E640202D03D0124C5444A3401A43501E0A
:100D00008241324307260027164009D00F200023D6
:100D1000104014000428B9D122005E075B021F0BAB
:100D2000D2081643002306E680273F031F433F03F4
:100D30003F0B1600004BFEE5FF0700001E040000FD
:100D40003E040000F8B557464E464546DE460C00C8
:100D50000903E0B5490A460F5F0031431E03DB0F6C
:100D6000760A9B46530F3343C84E6500C000E40F1C
:100D7000D2006D0DA24681467F0D9C469046B7423B
:100D800000D1B9E05B46012673409B46EE1BA345AC
:100D900000D183E0002E63DD002F00D0B1E0634678
:100DA000134300D123E1731E002B00D0BAE1861A51
:100DB0006346B04280410125C91A4042091A0B021C
:100DC00000D447E149024B0A98464346002B00D124
:100DD00089E1404600F0A4FB0300083B1F2B00DD27
:100DE0007CE120223000D21A4146D04099400200D6
:100DF0009E400A439D4200DD6AE15D1B6B1C1F2B78
:100E000000DD94E1202110003500C91A8E40DA403F
:100E10008840DD40711E8E411100072228430025C5
:100E200006433240002A09D00F233340042B05D05B
:100E3000331DB342B641764289191E000B0200D41D
:100E40003DE26A1C914B55056D0D9A4200D119E1A6
:100E50008F4AF6080A40570752023743120B9BE0AD
:100E6000002E00D0C5E06E1C7605760D012E00DC4C
:100E700048E16746861ACB1BB042BF417F42B84665
:100E80001F004346FF1A3B00B8461B0200D55FE136
:100E900037439AD100220024002579E0002E00DC9F
:100EA000FAE0002F00D18DE0784B9D4267D080237F
:100EB00067461B041F43BC46382E00DC52E16346E4
:100EC00013435A1E93411E1886428041404209181E
:100ED0000B0200D4BEE06D4B01359D4200D1D2E043
:100EE0006B4A73080A4001210E401E435108D30784
:100EF00007221E43324095E71E00164300D045E707
:100F000040E7624B9D423AD0802367461B041F4353
:100F1000BC46382E00DDEBE01F2E00DC3AE133004A
:100F20006746203BDF403B00202E05D04027BF1BFB
:100F30006646BE40324390464646721E9641334353
:100F4000DAE0002B00D114E26346134300D168E1DC
:100F500080234E07C008C9081B030643194208D066
:100F60006046C008184204D163460100D2085E07FB
:100F70001643F3009946C900720F444D11434B4686
:100F8000DE08424B4F073743CA089D4200D16EE04E
:100F900012036D05120B6D0D00211203130B0A0DC8
:100FA00012051A433B4B2D0513402B435B00E4070E
:100FB0005B082343380019003CBC90469946A24682
:100FC000AB46F8BD6346134311D0731E002B00D00F
:100FD00007E1861886428041614440420918012594
:100FE0000B0237D502257BE73E006146914635006E
:100FF000C5E75C46002D00D0E1E00B000343F3D0D1
:10100000731C00D1ACE1214B9F4200D13AE1F34384
:10101000382B00DD6FE11F2B00DD8CE120250E0059
:10102000ED1AAE40B0460600AA46DE4045463543BE
:101030002E005546D940A8406346451EA8415B1A7C
:101040009C463043161AB242924163465242991A64
:101050003D00B4E607223240002A00D0E4E60B4B04
:10106000F6084F073743CA089D4200D090E73B007F
:10107000134300D1A6E180231B031A431203120B72
:10108000024D89E715000022002785E7FF070000D1
:10109000FFFF7FFFFFFF0F80002E00D0C7E06B1C1B
:1010A0005E05760D012E00DCF0E0C84DAB4200D1AC
:1010B000B9E085180A0085428941624449425118C5
:1010C0000722CE076D082E43490832401D00A9E6CD
:1010D000BF49ED1A114007223240A3E632002838FA
:1010E0008240002686E6300000F01AFA203073E6CF
:1010F000634613435A1E9341C61AB0428041404290
:10110000091A5CE60E00674606431743002D5ED1C0
:10111000002E00D0F3E0002F00D11EE15C466146B6
:1011200091462CE7A94FBE427BD01E00F1E610008D
:101130001F3DE840202B03D04021CB1A9A40164394
:10114000731E9E410722064332400021002583E79B
:10115000161A6346B2428041591A40420B1A984609
:101160005C4632E61F2E00DDABE02027BB1B9A4613
:1011700063465746BB40994613004F46F3401F4312
:101180003B005746BA40571EBA4113436246F240ED
:10119000891898E62027BB1B9A4663465746BB40F2
:1011A000994613004F46F3401F433B005746BA4051
:1011B000571EBA4113436246F240891A9CE7834B9B
:1011C0009F425FD080252D047342294320E7002EE3
:1011D0000CD1002F00D1D0E05C46614691467B4D9A
:1011E000CDE67A4FBE421CD01E0065E6002F18D017
:1011F000C0084E0706438020C9080003014208D0FA
:101200006346DC08044204D12100DA46D2085E07B6
:101210001643F300994601245346C900720F114347
:101220001C406A4DABE61D0000220027B4E6002DED
:1012300059D10B00034300D1D6E6731C00D1B2E0B4
:10124000624B9F421ED0F343382B6FDC1F2B00DD17
:1012500097E020250E00ED1AAE40B0460600AA46E3
:10126000DE40454635432E005546A840D940451E30
:10127000A8418C440643B6189642924151426144BB
:101280003D0025E63D006146914678E60B000343AC
:10129000002D00D055E6002BF5D06346134300D156
:1012A0006DE686188642804161444042091800225A
:1012B0000B0200D4D0E6464B01351940B2E5B146E9
:1012C0005DE633006746203BDF403B00202E05D023
:1012D0004027BF1B6646BE40324390464646721EBC
:1012E00096413343EFE5394B9F42CBD080252D0407
:1012F00073422943A8E70843411E8841A2E6002F14
:1013000000D13CE66346861ACF1AB0429B415B424D
:10131000FB1A98461B024ED5161A6346B2429241FA
:10132000591A5242891A5C4600227BE501430E009D
:10133000711E8E419FE71D000E00203DEE40B0461D
:10134000202B04D04025EB1A99400843814648469B
:101350004346411E8841184374E60022002417E6E4
:10136000161A6346B2429241591A5242891A3D00F6
:1013700025E561469146154D01E6802200241203C1
:1013800079E61D000E00203DEE40B046202B04D033
:101390004025EB1A9940084381464E464346711E4C
:1013A0008E411E4367E7861896429B4161445B422B
:1013B000C9183D008CE547463743CED00722414649
:1013C000324049E600273A00E6E5C046FF07000044
:1013D000FFFF7FFF30B5144D0A034B00120B5B0D6E
:1013E000C90F0024AB4211DD104CA34210DC802455
:1013F000640322430E4CE41A1F2C0CDD0D48C31A63
:10140000DA4013005C42002900D11C00200030BDEE
:10141000094BCC18FAE7094DE040AC4663449A40CA
:1014200013000343EEE7C046FE0300001D04000066
:101430003304000013040000FFFFFF7FEDFBFFFFFC
:1014400010B5041E25D000F06BF8144B1B1A5B0579
:101450005B0D0A2812DD0B38844000222403240B84
:101460000021100024030A0D240B120522430C4C0A
:101470001B05224013435B00590810BD02002100E8
:10148000153291400A000B21081AC4402403240B92
:10149000E6E7002300240022E2E7C0461E04000025
:1014A000FFFF0F808446101C62468C46191C634661
:1014B00000E0C0461FB500F0F1F8002801D400217B
:1014C000C8421FBD10B500F049F84042013010BDC0
:1014D00010B500F0E3F8002801DB002010BD01206A
:1014E00010BDC04610B500F0D9F8002801DD00207D
:1014F00010BD012010BDC04610B500F06BF80028EB
:1015000001DC002010BD012010BDC04610B500F068
:1015100061F8002801DA002010BD012010BDC0468E
:101520001C2101231B04984201D3000C10391B0A13
:10153000984201D3000A08391B09984201D30009D7
:10154000043902A2105C40187047C046040302022E
:10155000010101010000000000000000F0B54F464D
:101560004646D6468446C0B58046194E18030F033A
:101570004D00000B5C0082463F0B6D0DC90F91467C
:10158000640DDB0F0120B5420AD0B44203D0A5425E
:1015900001D157450CD01CBC90469946A246F0BDDF
:1015A00066463E43F7D1AC42F5D154461443F2D1DE
:1015B0000120C845EFD1994207D0002DEBD16346F9
:1015C0001F433800471EB841E5E70020E3E7C04667
:1015D000FF070000F0B54F464646D6464D00C0B561
:1015E0000E03C90F8A462C491F035C008046360B48
:1015F0006D0D91463F0B640DDB0F8D421ED08C426A
:1016000016D0002D1ED130438446002C01D13A4320
:1016100023D06246002A1AD09A4529D0514602208A
:101620000139084001381CBC90469946A246F0BDDD
:1016300039001143E5D002204042F4E73043FAD1AB
:10164000AC420FD0002C0FD13A43E7D00CE001227E
:10165000013B934318000130E5E763460020002B6F
:10166000E1D0DBE73A43E6D19A45D7D1A542D5DCB4
:10167000A54205DBBE42D1D808D00020BE42D2D25E
:1016800050460123013898430130CCE7C845C5D8FE
:101690000020C845F4D3C6E7FF070000F0B54F4669
:1016A0004646D6464D00C0B50E03C90F8A462E49A0
:1016B0001F035C008046360B6D0D91463F0B640D99
:1016C000DB0F8D4218D08C4211D0002D18D1304341
:1016D0008446002C1ED13A431CD163460020002BC7
:1016E00030D0514602200139084001382AE0390043
:1016F0001143EAD0022025E03043FBD1AC4226D092
:10170000002C26D13A4324D1514602200139084009
:10171000013817E06246002A0FD09A45E1D1A54270
:1017200005DBBE42DDD819D00020BE420AD25046A9
:10173000012301389843013004E00122013B934327
:10174000180001301CBC90469946A246F0BD3A43B1
:10175000D0D19A45C5D1A542C3DCE0E7C845C0D881
:101760000020C845E3D3EDE7FF070000F0B589B0DE
:101770001422002103A801F097FE2B4BD96A042202
:101780001143D962D96A0A400092009ADA6A0124A8
:101790002243DA62DA6A22400192019ADA6A022668
:1017A0003243DA62DB6A33400293029B1F4D002210
:1017B0002900A020C00500F063FE88277F000122D9
:1017C0003900A020C00500F05BFE03950494059647
:1017D0000026069603A9A020C00500F083FD03970C
:1017E00004940594069603A9A020C00500F07AFD94
:1017F000332303930E4B0493059603A90D4800F081
:1018000071FD00220021052000F016FD052000F0EA
:1018100043FD00220021072000F00EFD072000F00C
:101820003BFD09B0F0BDC0460010024001080000B9
:10183000000011100004005030B59BB0342200218C
:101840000DA801F031FE1422002108A801F02CFEA1
:1018500020220021684601F027FE17490A68174C2C
:10186000224080231B0113430B6000F01FFE144A2B
:10187000136D2340136506230D93FA330F9301254F
:101880001095F03B1193002416940DA800F070FE03
:101890000F23089309950A940B940C94002108A82F
:1018A00001F0F0F82023009380235B020193684647
:1018B00001F0BCF91BB030BD00700040FFE7FFFF36
:1018C0000010024010B582B000F086FCFFF7B4FFB4
:1018D000FFF74CFF00F01CF800F094F80A4C90233E
:1018E000E35898479C23E3589847074C0920E36F37
:1018F00098476B46D8719823E3589847FA208000A0
:1019000000F08CFCF1E7C0460400002070470000A6
:1019100010B590B0142200210BA801F0C5FD0024E1
:101920000A9428220021684601F0BEFD2648274B74
:10193000036044607F2383608033C360046144613B
:101940008461C46101F0C6FA002831D10BA90023DB
:101950000B704B708B70CB600B6101221A4801F049
:1019600031FB002827D10AA901230B704B708B7023
:101970000023CB700122144801F0ACFB00281DD1DC
:1019800000236A461370537093700193039304937A
:10199000059306930793203301226946CA54E03326
:1019A0000993094801F00CFC00280AD110B010BDC1
:1019B000FFF7ACFFCAE7FFF7A9FFD4E7FFF7A6FFE1
:1019C000DEE7FFF7A3FFF1E7D0000020002800408A
:1019D00010B50268094B9A4200D010BD084A116D3B
:1019E0008023DB020B43136500220021022000F05C
:1019F00023FC022000F050FCEFE7C0460028004026
:101A00000010024010B50E480E4B036082235B00AD
:101A1000436000238360C3600361436180229200BE
:101A20008261C3610362436283620733C36201F070
:101A3000A9FC002800D110BDFFF768FFFBE7C046F6
:101A4000F40000200030014010B586B004001422DC
:101A5000002101A801F028FD22680F4B9A4201D015
:101A600006B010BD0D4B596B802252010A435A63D8
:101A7000D96A01221143D962DB6A1A400092009BA5
:101A8000E0230193DE3B029301330493A02001A9DC
:101A9000C00500F027FCE3E70030014000100240E1
:101AA000054B5A6B01210A435A63996B80225205F8
:101AB0000A439A637047C046001002407047FEE731
:101AC0007047704710B500F09BFB10BD10B5024881
:101AD00001F096F910BDC046D000002010B50120DD
:101AE00000F0D6FC022000F0D3FC10BD10B5102091
:101AF00000F0CEFC202000F0CBFC10BD104B19688C
:101B0000802252000A431A60DA680E490A40DA60FD
:101B10001A680D490A401A609A6801218A439A603E
:101B20001A680A490A401A60DA6809490A40DA6004
:101B300000221A61074B802212059A607047C04646
:101B4000001002400C40FF88F6FFF6FEFFFFFBFF8F
:101B5000FFFF02FF00ED00E00C4B1A681368402104
:101B60000B43136072B6094B1B689A689207FAD54B
:101B7000D8609A68D207FCD5D868C0B262B6034B69
:101B80001A68136840218B4313607047F4000020EB
:101B9000034B30229A70DA701A712D3A5A707047DE
:101BA0000400002070B504000E001500A0200022E3
:101BB0001021C00500F064FC802040422043C0B2E8
:101BC000FFF7CAFF002404E0305DFFF7C5FF0134D2
:101BD000E4B2AC42F8D3A02001221021C00500F0ED
:101BE0004FFC70BD00B583B06B46D971073301223D
:101BF0001900FFF7D7FF03B000BD000010B5FFF7D5
:101C00001FFC00220A4BFEF729FBFEF709FB04002C
:101C1000010CC9B20620FFF7E5FF210AC9B207206F
:101C2000FFF7E0FFE1B20820FFF7DCFF10BDC04680
:101C300080844E40F8B504000F001600A02000225A
:101C40001021C00500F01CFC7F202040FFF784FF1E
:101C5000002406E03D190020FFF77EFF28700134C4
:101C6000E4B2B442F6D3A02001221021C00500F056
:101C700007FCF8BD10B582B06B46DC1D01222100C7
:101C8000FFF7D8FF207802B010BD70B5050009201D
:101C9000FFF7F0FF06004D20FFF7ECFF04001021D6
:101CA0004942314349B2002905DB6B1C33DB0E2D61
:101CB00033DD0E2531E0112D14DD07240443E4B299
:101CC00007232340072B14D0012D22DD112D00DD29
:101CD00011250F239943023D6DB20F202840014387
:101CE000C9B221E00723984344B204200443E4B27C
:101CF000E6E7042D03DD142D02DD142500E00525A3
:101D00000F239943053D6DB20F2028400143C9B20E
:101D10000AE00225DDE701256D420F2399430135D5
:101D200068B218400143C9B20920FFF75BFF2100E8
:101D30004D20FFF757FF70BD30B583B0050001207F
:101D4000FFF798FF6B46DC1DD871D97907239943BB
:101D500049B22943C9B20120FFF744FF0120FFF730
:101D600089FF207003B030BD10B50120FFF7E4FFFC
:101D700010BD10B50020FFF7DFFF10BD10B582B019
:101D800004000120FFF776FF6B46D87107331B78FC
:101D90005BB2002B23DB1F4B00221A701D4B1B78FC
:101DA000A3421AD01B4B1C70012C1CD1FFF7E1FF82
:101DB0000120FFF75FFF6B46D871D97980235B4222
:101DC0001943C9B20120FFF70DFF00214020FFF7A2
:101DD00009FF00214120FFF705FF02B010BD0D4BA8
:101DE00001221A70DAE7FFF7C4FF0120FFF742FF74
:101DF0006B46D871D9797F2319400120FFF7F2FE95
:101E000000214020FFF7EEFE30214120FFF7EAFEDF
:101E1000E3E7C0460400002070B504000D00FFF7A2
:101E2000ADFF012C00D070BD29002320FFF7DAFEA2
:101E3000F9E710B504000120FFF7A0FF002C04D142
:101E400012213920FFF7CEFE10BD34213920FFF7D3
:101E5000C9FEF9E7F0B5DE4657464E464546E0B5C1
:101E600083B0070000911C000CAB04CB90461E7899
:101E70000EAB1B8899460FAB1B789A4610AB1D78AA
:101E800011AB1B789B4612AB1B780193FFF776FFD3
:101E90000098FFF7FAFE012F57D1073443460C2B69
:101EA00004D8052B04D80623984601E00C23984655
:101EB000072C51D0082C55D000275B46002B58D159
:101EC0001D20FFF7D7FE2401E1B27600F6B23143C0
:101ED000534619431D20FFF785FE1E20FFF7CAFE5B
:101EE0000B21014043461801C0B20143AD00EDB2E1
:101EF00029431E20FFF776FE2620FFF7BBFE41B2E6
:101F000008239943FF003943C9B22620FFF76AFE30
:101F10004B46190A2020FFF765FE4B46D9B2212017
:101F2000FFF760FE4346062B32D03120FFF7A2FEBA
:101F300041B20723994303200143C9B23120FFF77F
:101F400051FE0A213720FFF74DFE03B03CBC9046FE
:101F50009946A246AB46F0BD43460B3B012BA9D8A0
:101F60000127AAE743460C2B01D00027A5E701274C
:101F7000A3E74420FFF77EFE802149420143C9B216
:101F80004420FFF72FFE01992420FFF72BFE97E74F
:101F90003120FFF76FFE41B207239943052001432B
:101FA000C9B23120FFF71EFE0C213720FFF71AFEC1
:101FB000CBE7000070B50920FFF75CFE05000620A6
:101FC000FFF758FE04040720FFF754FE0002044305
:101FD0000820FFF74FFE2043FFF732FA0022184B8C
:101FE000FEF73EFCFEF71CF9040000210920FFF774
:101FF000F9FD3B20FFF73EFE40210143C9B23B20E3
:10200000FFF7F0FD3B20FFF735FE8306FAD40D48BD
:10201000FFF7F4FD3B20FFF72DFE40210143C9B23D
:102020003B20FFF7DFFD3B20FFF724FE8306FAD4B9
:1020300029000920FFF7D6FD2000FFF7DFFD70BD66
:1020400080844E4000A1BC3310B58CB08021A02408
:10205000E40501220901200000F012FA802100228B
:102060004900200000F00CFA3148FFF7C7FD314C61
:1020700061780120FFF7D0FE2F4B089300230793D0
:102080000693059301220492039305330293019270
:10209000023300930023002205210120FFF7DAFE1E
:1020A0003320FFF7E7FD41B241239943012001436B
:1020B000C9B23320FFF796FD1D213B20FFF792FDAB
:1020C00061782220FFF78EFD00210E20FFF78AFDA8
:1020D00000210D20FFF786FD0120FFF7CBFD2F2308
:1020E0006B4418700120FFF7C5FDF823984319D001
:1020F00010494A7802310020FFF754FDF7211120E2
:10210000FFF770FD4020FFF7B5FD40B23F210140D1
:10211000402001434020FFF765FD0320FFF70CFE40
:102120000CB010BDFFF720FE0A2000F077F8DFE7C3
:10213000C8A3C43304000020B80B000010B5A024CD
:10214000E40500220121200000F09AF90A2000F0A5
:1021500065F801220121200000F092F93C2000F0F6
:102160005DF810BD70B5FFF7E9FFFFF723FF002012
:10217000FFF7E2FD00240CE00A4D66003619705DA1
:10218000FFF7FCFDAD19A9786878FFF72BFD013446
:10219000E4B20F2CF0D90020FFF7F0FD0020FFF78C
:1021A00048FE70BDF434000810B50400094B1868EF
:1021B000FA218900FDF7A8FF00F078F8002801D087
:1021C000012010BD013000222100404200F034F80F
:1021D0000020F6E70000002010B5084A13684021EF
:1021E0000B4313600020FFF7DFFF041E02D0012421
:1021F000200010BDFFF754FCFAE7C0460020024063
:10220000024A1368013313607047C0464C01002036
:10221000014B18687047C0464C01002070B504009F
:10222000FFF7F6FF0500631C00D00134FFF7F0FF55
:10223000401BA042FAD370BD70B5002811DB8408A2
:10224000134DC034A400625903231840C000FC336E
:102250001E008640B24389010B4083401343635103
:1022600070BDC0B20F220240083A920806329200B6
:10227000084BD3185D6803242040C000FF221400DF
:102280008440A54389010A4082402A435A60E7E717
:1022900000E100E000ED00E01F2318401E3B8340FA
:1022A000014A13607047C04600E100E001380A4B64
:1022B00098420FD8094A50600948036A1B021B0A5A
:1022C000C02109060B4303620023936007331360A8
:1022D000002070470120FCE7FFFFFF0010E000E056
:1022E00000ED00E0F0B5C64600B5002338E0052655
:1022F00000E00026AE4035003D430234A400584EB5
:10230000A551584C25684246D4432E0026404A68C1
:10231000D20302D5424615432E00524D2E606D6801
:102320002E0026404A68920302D5424615432E00ED
:102330004C4D6E60AD682E0026404A68D20202D530
:10234000424615432E00474DAE60ED682C404A686A
:10235000920202D542462A431400424AD460013315
:102360000A681400DC4077D001249C40224090464B
:10237000F5D04D68022D01D0122D0ED1DD080835A3
:10238000AD002F5807261E40B6000F22B2409743DB
:102390000A69B24016003E432E504D686E1E012E53
:1023A00003D9112D01D0122D12D185685F000326AB
:1023B000BE40B5432E00CD68BD40354385604568BD
:1023C000A5434A681609012434409C402C434460CC
:1023D00007685E0003242500B540ED432F404A689E
:1023E0001440B4403C430460C46825408C68B44049
:1023F0002C43C4604A68D200B1D51B4D6C6B0126DA
:1024000034436C639C08A51CAD00154EAF590326E0
:102410001E40B5000F26AE40B743A026F605B042D9
:1024200000D166E7114EB0420ED0114EB0420DD031
:10243000104EB0420CD0104EB0420BD00F4EB042F6
:1024400000D154E7062655E7012653E7022651E757
:1024500003264FE704264DE704BC9046F0BDC04676
:102460000000014000040140001002400004005040
:1024700000080050000C005000100050001C0050DC
:10248000002A01D1816270478161FCE7704700003A
:1024900010B5054B5B69184200D110BD024B586165
:1024A000FFF7F4FFF9E7C04600040140034A116852
:1024B00080235B000B4313607047C04600700040F0
:1024C00010B5264BD9680C230B40082B42D00C2B9F
:1024D00011D0042B09D0214B5A68520B072313400B
:1024E000013380200002984010BD1C4B1B68DB06A6
:1024F00032D51B48F8E78A0C0F231340194AD05CE9
:10250000890D032211400131144BDB68DB030DD42C
:10251000124B1B68DB0613D54201121A93019B1A5A
:10252000DB001B181802FDF7EFFDDDE74201121A70
:1025300093019B1ADB001B185802FDF7E5FDD3E75A
:102540004201121A93019B1ADB001B189802FDF737
:10255000DBFDC9E70448C7E70448C5E700100240AF
:1025600000093D00D034000800127A000024F40075
:10257000F0B583B0041E00D165E2C44BDA680C25C7
:102580001540DA688026760216400368DB0736D5E8
:10259000082D2CD00C2D28D0636880225202934243
:1025A00055D0A022D202934258D0B84B1A68B849ED
:1025B0000A401A601A68802149020A400192019A71
:1025C0001A68B4490A401A606368002B52D0FFF7BA
:1025D0001FFE0700AD4B1B689B0310D4FFF718FECE
:1025E000C01B6428F6D903202EE2002ED4D0A74BBE
:1025F0001B689B0303D56368002B00D126E2236888
:102600009B076CD5E3689A0605D5A048026820218F
:102610000A4302608B43042D3CD00C2D38D0002B94
:1026200000D1AEE099490A680920824313430B6048
:10263000FFF7EEFD0600954B1B685B0700D597E0A2
:10264000FFF7E6FD801B0228F5D90320FCE18F4A45
:10265000116880235B020B431360B5E78B4B19684D
:102660008022D2020A431A601968802252020A4369
:102670001A60A9E7FFF7CCFD0700844B1B689B039A
:10268000BDD5FFF7C5FDC01B6428F6D90320DBE1EB
:10269000002EC4D17D4A1268520702D5002B00D10A
:1026A000D6E17A4E72687C490A40216909020A43E0
:1026B0007260326809218A4313433360FFF700FFD9
:1026C000F26812090F231340744AD35CD840744B4C
:1026D00018600020FFF768FD002800D0B4E12368EF
:1026E000DB062CD5002D5FD1684B1B689B0503D5FD
:1026F000A369002B00D1ADE1644A536869490B40DE
:10270000216A0B43536053681B021B0AE1690906E7
:102710000B435360236A590B013180231B028B400A
:10272000D16809090F220A405C498A5CD3405C4A9F
:1027300013600020FFF738FD002800D084E12368F3
:102740001B077DD56369002B67D0504A136D0121AB
:102750000B431365FFF75CFD06004C4B1B6D9B079D
:102760006ED4FFF755FD801B0228F6D903206BE1DC
:1027700046494B68484A13402269120213434B6092
:10278000ADE7424A136801218B431360FFF740FD18
:1027900006003E4B1B685B07A1D5FFF739FD801B88
:1027A0000228F6D903204FE1A369002B22D0374A33
:1027B000116880235B000B431360FFF729FD0600BF
:1027C000324B1B689B0506D4FFF722FD801B0228B5
:1027D000F6D9032038E12D4A536832490B40216A6B
:1027E0000B43536053681B021B0AE16909060B4344
:1027F0005360A4E7254A13682B490B401360FFF789
:1028000007FD0600214B1B689B0598D5FFF700FDCF
:10281000801B0228F6D9032016E11C4A136D012102
:102820008B431365FFF7F4FC0600184B1B6D9B07E9
:1028300006D5FFF7EDFC801B0228F6D9032003E143
:1028400023685B0700D48CE0104B9B6BDB001BD430
:102850000E4A916B80235B050B4393630126134B58
:102860001B68DB0526D5A36880225200934235D031
:10287000002B4BD1054B1A6D0B490A401A651A6D96
:102880000B490A401A652FE00026E8E700100240D5
:10289000FFFFFEFFFFFFFBFFFFE0FFFFDC34000850
:1028A00000000020FF1FFFFFFFFEFFFF0070004041
:1028B000FFFBFFFF6B4A116880235B000B43136033
:1028C000FFF7A6FC0700674B1B68DB05CBD4FFF7BF
:1028D0009FFCC01B6428F6D90320B5E0624A116D45
:1028E00080235B000B431365A368002B28D0FFF700
:1028F0008FFC07005C4B1B6D9B0530D4FFF788FCF9
:10290000C01B5A4B9842F5D903209DE0A022D2006B
:10291000934209D0544B1A6D55490A401A651A6DF5
:1029200054490A401A65DFE74F4B196D013AFF3AE7
:102930000A431A65196D802252000A431A65D3E7CB
:10294000FFF766FC0700484B1B6D9B0507D5FFF79B
:102950005FFCC01B454B9842F5D9032074E0012E63
:102960001AD0636A002B00D176E00C2D4FD0022BD9
:1029700018D03D4A136840490B401360FFF748FCEC
:102980000400394B1B689B013FD5FFF741FC001B3E
:102990000228F6D9032057E0334A936B37490B409E
:1029A0009363DEE7304A136833490B401360FFF747
:1029B0002FFC05002C4B1B689B0106D5FFF728FC5C
:1029C000401B0228F6D903203EE02749CB682C4A59
:1029D0001340A26AE06A0243206B02431343CB60B8
:1029E0000A6880235B0413430B60FFF711FC0400AB
:1029F0001D4B1B689B0106D4FFF70AFC001B022835
:102A0000F6D9032020E000201EE000201CE0012B6E
:102A100024D0154BDA6880235B021340A16A8B42F5
:102A200001D0012010E0F0239B031340E16A8B42A8
:102A300001D0012008E0C0231B041A40236B9A42F6
:102A40000ED0012000E0012003B0F0BD0120FBE723
:102A50000120F9E70120F7E70020F5E70120F3E77F
:102A60000020F1E7007000400010024088130000D1
:102A7000FFFEFFFFFFFBFFFFFFFFFFFEFFFFFFEF7C
:102A8000FFFF02FF70B504000D00002800D1BAE07E
:102A90005F4B1A68012313408B420BD25C490B68D1
:102AA000012293432B430B600B681A40AA4201D0CA
:102AB0000120A9E023689B0706D5564AD368F02178
:102AC0008B43A1680B43D3602368DB0764D563683D
:102AD000022B09D0032B29D0012B2DD04D4A12688F
:102AE000920506D401208FE04A4A1268920300D46E
:102AF0008BE04849CA68032082431343CB60FFF749
:102B000087FB06006368022B1CD0032B28D0012B07
:102B100034D0404BDB680C221A423DD0FFF778FBE3
:102B2000801B3D4B9842F4D903206DE0394A12686E
:102B30009201DED4012067E0364A12685207D8D4E9
:102B4000012061E0334BDA680C231340082B23D0BB
:102B5000FFF75EFB801B304B9842F3D9032053E014
:102B60002C4BDA680C2313400C2B15D0FFF750FBCD
:102B7000801B294B9842F3D9032045E0254BDA68A6
:102B80000C231340042B07D0FFF742FB801B224B82
:102B90009842F3D9032037E01D4B1A6801231340F4
:102BA000AB420BD91A490B68012293432B430B60AC
:102BB0000B681A40AA4201D0012025E023685B0778
:102BC00006D5144AD36815490B40E1680B43D3601E
:102BD00023681B0707D50F49CB68114A13402269A8
:102BE000D2001343CB60FFF76BFC0A4BDA68120983
:102BF0000F2313400B4AD35CD8400B4B18600020C6
:102C0000FFF7D2FA00E0012070BD0120FCE7C046CA
:102C1000002002400010024088130000FFF8FFFF70
:102C2000FFC7FFFFDC3400080000002070B504007F
:102C300003689B0650D5674B9B6BDB0000D589E092
:102C4000644A916B80235B050B4393630125624BC0
:102C50001B68DB0500D47FE05E4B1968C0239B0333
:102C60001940626813408B4206D0C0239B021100BA
:102C70001940994200D184E0564B1B6DC021890256
:102C80000B4016D00A409A4213D023689B0610D5F9
:102C9000504B186D514A02401E6D8021090331438B
:102CA0001965196D4E4E314019651A65C30500D579
:102CB0006EE06368C022920219001140914200D177
:102CC00076E044490B6DC0229202606802401343D3
:102CD0000B65012D00D175E02368DB0706D53D4A61
:102CE000D36C03218B43A1680B43D36423689B07F8
:102CF00006D5384AD36C0C218B43E1680B43D3646F
:102D000023685B0706D5334AD36C36490B402169EB
:102D10000B43D36423681B0706D52E4AD36C324974
:102D20000B4061690B43D3642368DB0506D5294A50
:102D3000D36C2A490B40A1690B43D36423681B065B
:102D400046D5244AD36C29490B40E1690B43D3642F
:102D5000002070BD00257AE71F4A116880235B00C0
:102D60000B431360FFF754FA06001B4B1B68DB058F
:102D700000D571E7FFF74CFA801B6428F5D90320D2
:102D8000E7E7144B1B689B0300D475E70120E0E7DD
:102D9000FFF73EFA06000F4B1B6D9B0500D588E739
:102DA000FFF736FA801B124B9842F4D90320D0E784
:102DB00008490A680F480240C020800303401343BB
:102DC0000B607EE70A008B6B0B490B40936383E734
:102DD0000020BEE70010024000700040FFFFFCFF33
:102DE000FFFFF7FFFFF3FFFFFFCFFFFFFFFFF3FF43
:102DF00088130000FFFFCFFFFFFFFFEF70470000C9
:102E000010B5040003689A68D20402D5DB68DB05BC
:102E10000ED423689A68920402D5DB689B0511D40E
:102E20000E4B802292025A6121230122E25410BDEE
:102E3000FFF7E4FF2168CA68FF231A40084B1343D9
:102E4000CB60E6E7200000F09BFA2168CA68FF2308
:102E50001A40044B1343CB60E2E7C0460004014034
:102E60007FFEFFFF7FFDFFFF70B504000268D3689F
:102E7000A0218B43D360FFF7CBF905002368DB6803
:102E80009B0608D4FFF7C4F9401BFA239B00984225
:102E9000F4D9032000E0002070BD70B50400036881
:102EA000DA68520601D5002070BD01225242DA6074
:102EB000FFF7AEF905002368DB685B0608D4FFF76F
:102EC000A7F9401BFA239B009842F4D90320EBE7B3
:102ED0000020E9E770B5041E63D02123C35C002BFA
:102EE00040D021230222E2542368C8325A62236868
:102EF000773A5A622000FFF7D0FF051E38D12268CA
:102F0000936829490B40936021688A686368206947
:102F10000343A069034313438B602368E2681A618B
:102F200021680B69A268120413430B612268D368FD
:102F300080218B43D3602268D36C7D398B43D3646B
:102F40002168CB6CE269606902431343CB64236858
:102F50009B689B0615D52368FF225A622123FE3AFF
:102F6000E2540CE020330022C254FEF731FDB8E7F2
:102F70002368FF225A622123FB3AE25401252800EC
:102F800070BD2000FFF770FF0028E4D02368FF2207
:102F90005A622123FB3AE254013B0022E25401250C
:102FA000EDE70125EBE7C046BFFF8FFF002302E0FE
:102FB00001330A38C0B20928FAD81B01DBB2184322
:102FC00070470000F8B504000E002023C35C012BFD
:102FD00000D178E020230121C15401330131C154D3
:102FE000002A43D103689B685B0601D40023F37079
:102FF0003078FFF7DBFF05047078FFF7D7FF00029A
:103000000543B078FFF7D2FF0543F078000405438D
:103010002368CA225A622368773A5A622000FFF76F
:103020003CFF071E33D12368284805401D602268F5
:10303000936827490B40936021688B68F268306978
:10304000024313438B602268D36880218B43D36093
:1030500023689B689B0626D52368FF225A6221239A
:10306000FE3AE254013B0022E2541AE003689B68F6
:103070005B0601D40023F37035782D0470780002CC
:103080000543B0780543F07800040543C0E72368A2
:10309000FF225A622123FB3AE254013B0022E25410
:1030A00001273800F8BD2000FFF7DEFE0028D3D04E
:1030B0002368FF225A622123FB3AE254013B00229B
:1030C000E2540127EDE70227EBE7C0467F7F7F0050
:1030D000FFFFFBFF70B504000E002023C35C012B33
:1030E00069D020230121C15401330131C154002A88
:1030F00006D17378D90603D510218B430A33737038
:10310000002A31D1F078FFF751FF05047078FFF7FE
:103110004DFF00020543B078FFF748FF05433078C4
:10312000400305432368CA225A622368773A5A62E9
:103130002000FFF7B2FE061E21D123681F4805407C
:103140005D602268D36880218B43D36023689B68CD
:103150009B0620D52368FF225A622123FE3AE254BF
:10316000013B0022E25414E0F5782D04707800024F
:103170000543B0780543307840030543D2E7236820
:10318000FF225A622123FB3AE254013B0022E2541F
:103190000126300070BD2000FFF766FE0028D9D060
:1031A0002368FF225A622123FB3AE254013B0022AA
:1031B000E2540126EDE70226EBE7C0463FFFFF00A1
:1031C000F8B504000D002023C35C012B00D1CBE037
:1031D00020230121C15401330131C154002A52D1AD
:1031E00003689B685B0601D40023EB70EE692878C6
:1031F000FFF7DCFE07046878FFF7D8FE00020743FC
:10320000A878FFF7D3FE0743E8780004074320239C
:10321000E85CFFF7CBFE000607433E436B691E43A5
:103220006F68AB691F432368CA225A622368773AE2
:103230005A626A6A80235B009A423DD02268936892
:103240004A490B4093602168CA68FF231A40484BE3
:103250001343CB60FEF7DCFF05002368DA689207B2
:103260005FD4FEF7D5FF401BFA239B009842F4D9A8
:103270002368FF225A622123FC3AE254013B0022D8
:10328000E25403206FE003689B685B0601D40023CF
:10329000EB702E7836046B781B021E43AB781E430E
:1032A000EB781B041E432023EB5C1B061E43EB69DB
:1032B0001E436B691E43B3E7226893682D490B4098
:1032C00093602168CA68FF231A402B4B1343CB60DD
:1032D000FEF79EFF05002368DA68D20711D4FEF7D7
:1032E00097FF401BFA239B009842F4D92368FF22E2
:1032F0005A622123FC3AE254013B0022E2540320AB
:1033000031E0DE6123685F642268916880235B009E
:103310000B4393602268916880235B010B439360A9
:103320000EE01E6223689F642268916880239B00E0
:103330000B4393602268916880239B010B43936049
:103340000E4B1968802292021143196099680A4352
:103350009A602368FF225A622123FE3AE254013B1D
:103360000022E2540020F8BD0220FCE7FFFDFFFF31
:103370007FFDFFFFFFFEFFFF7FFEFFFF0004014018
:103380007047000010B5041E3BD000238362513308
:10339000C35C002B2FD051220223A35421680B6859
:1033A000402083430B606368A1680B43E1680B43D3
:1033B00021690B4361690B4380218900A0690140A9
:1033C0000B43E1690B43216A0B432168A06A034365
:1033D0000B60618B04230B402168606A03434B60E0
:1033E0002168CB6908480340CB6100236365013342
:1033F000A354002010BD50330022C254FEF724FB1A
:10340000C9E70120F6E7C046FFF7FFFF0D488546F4
:10341000002103E00C4B5B58435004310B480C4B2C
:1034200042189A42F6D30B4A02E00023136004329A
:10343000094B9A42F9D3FEF761FB00F011F8FEF751
:1034400041FAFEE700500020BC35000800000020D3
:10345000B4000020B400002050010020FEE700006E
:1034600070B500260C4D0D4C641BA410A64209D16A
:10347000002600F021F80A4D0A4C641BA410A64255
:1034800005D170BDB300EB5898470136EEE7B300A5
:10349000EB5898470136F2E7B4350008B435000818
:1034A000B4350008B835000803001218934200D163
:1034B000704719700133F9E7F8B5C046F8BC08BC8D
:1034C0009E467047F8B5C046F8BC08BC9E4670479B
:1034D000030406080C101820300000000000000053
:1034E00000000000010203040607080900000000B4
:1034F00001020304000C23000D1E000ED2001A016D
:10350000001FAA0024070027120028C100299400E8
:103510002AC10030D800358F003B02004000004136
:10352000300123400C0B0A0908070732140E0B0860
:10353000050200000005000872030008B603000839
:103540001A030008B6030008A6040008B603000822
:103550001A0300087203000872030008A60400089A
:103560001A030008120300081203000812030008DF
:10357000B4040008180A00081A0900081A0900080B
:10358000380C00081409000814090008200C000871
:10359000380C000814090008200C00081409000861
:1035A000380C00082E0C00082E0C00082E0C000809
:0435B0003C0C0008C7
:0435B400E900000822
:0435B800C100000846
:1035BC0000002000000000000000000000000000DF
:1035CC0000000000000000000000000000000000EF
:1035DC0000000000000000000000000000000000DF
:1035EC0000000000000000000000000000000000CF
:1035FC0000000000000000000000000000000000BF
:10360C0000000000000000000000000000000000AE
:10361C00000000000000000000000000000000009E
:10362C00B51F0008391D00087D1D000800000000B2
:10363C00751C0008351C0008E51B0008A51B0008BC
:10364C00591B000865210008731D0008492000085B
:10365C00911B0008FD1B0008191E0008551E0008D0
:04366C00691D0008CC
:040000050800340DAE
:00000001FF
